{
  "_format": "hh-sol-artifact-1",
  "contractName": "Div",
  "sourceName": "contracts/Div.sol",
  "abi": [
    {
      "inputs": [],
      "stateMutability": "nonpayable",
      "type": "constructor"
    },
    {
      "anonymous": false,
      "inputs": [
        {
          "indexed": false,
          "internalType": "string",
          "name": "message",
          "type": "string"
        }
      ],
      "name": "Division",
      "type": "event"
    },
    {
      "inputs": [],
      "name": "div",
      "outputs": [
        {
          "internalType": "uint32",
          "name": "",
          "type": "uint32"
        }
      ],
      "stateMutability": "view",
      "type": "function"
    },
    {
      "inputs": [],
      "name": "division",
      "outputs": [],
      "stateMutability": "nonpayable",
      "type": "function"
    },
    {
      "inputs": [],
      "name": "x",
      "outputs": [
        {
          "internalType": "uint16",
          "name": "",
          "type": "uint16"
        }
      ],
      "stateMutability": "view",
      "type": "function"
    },
    {
      "inputs": [],
      "name": "y",
      "outputs": [
        {
          "internalType": "uint16",
          "name": "",
          "type": "uint16"
        }
      ],
      "stateMutability": "view",
      "type": "function"
    }
  ],
  "bytecode": "0x608060405234801561001057600080fd5b50600080546202000a63ffffffff199091161790556101b7806100346000396000f3fe608060405234801561001057600080fd5b506004361061004c5760003560e01c80630c55699c146100515780633205f5fc14610077578063a56dfe4a14610081578063f9fa48c314610095575b600080fd5b60005461005f9061ffff1681565b60405161ffff90911681526020015b60405180910390f35b61007f6100c2565b005b60005461005f9062010000900461ffff1681565b6000546100ad90640100000000900463ffffffff1681565b60405163ffffffff909116815260200161006e565b6000546100db9061ffff62010000820481169116610152565b61ffff16600060046101000a81548163ffffffff021916908363ffffffff1602179055507fffa2bcf414a79711ee76416da9a2a4be8b4630bd7a541e0841022184aaf5e5a560405161014890602080825260079082015266111a5d9a59195960ca1b604082015260600190565b60405180910390a1565b600061ffff8084168061017557634e487b7160e01b600052601260045260246000fd5b9216919091049291505056fea264697066735822122017d8aa54a156df1ca8e79d738446429521a97c9053ba222896a950d3dadc6efd64736f6c63430008130033",
  "linkReferences": {},
  "deployedLinkReferences": {}
}