{
  "_format": "hh-sol-artifact-1",
  "contractName": "Sum",
  "sourceName": "contracts/Sum.sol",
  "abi": [
    {
      "inputs": [],
      "stateMutability": "nonpayable",
      "type": "constructor"
    },
    {
      "anonymous": false,
      "inputs": [
        {
          "indexed": false,
          "internalType": "string",
          "name": "message",
          "type": "string"
        }
      ],
      "name": "Summed",
      "type": "event"
    },
    {
      "inputs": [],
      "name": "sum",
      "outputs": [
        {
          "internalType": "uint32",
          "name": "",
          "type": "uint32"
        }
      ],
      "stateMutability": "view",
      "type": "function"
    },
    {
      "inputs": [],
      "name": "summation",
      "outputs": [],
      "stateMutability": "nonpayable",
      "type": "function"
    },
    {
      "inputs": [],
      "name": "x",
      "outputs": [
        {
          "internalType": "uint16",
          "name": "",
          "type": "uint16"
        }
      ],
      "stateMutability": "view",
      "type": "function"
    },
    {
      "inputs": [],
      "name": "y",
      "outputs": [
        {
          "internalType": "uint16",
          "name": "",
          "type": "uint16"
        }
      ],
      "stateMutability": "view",
      "type": "function"
    }
  ],
  "bytecode": "0x608060405234801561001057600080fd5b50600080546202000563ffffffff199091161790556101c2806100346000396000f3fe608060405234801561001057600080fd5b506004361061004c5760003560e01c80630c55699c146100515780631a46f38a14610077578063853255cc14610081578063a56dfe4a146100ae575b600080fd5b60005461005f9061ffff1681565b60405161ffff90911681526020015b60405180910390f35b61007f6100c2565b005b60005461009990640100000000900463ffffffff1681565b60405163ffffffff909116815260200161006e565b60005461005f9062010000900461ffff1681565b6000546100db9061ffff6201000082048116911661015c565b61ffff16600060046101000a81548163ffffffff021916908363ffffffff1602179055507fbd5ec4a14b5b8755204794316f461937cabb2193a9efd2384f3d47475060d59e6040516101529060208082526011908201527014dd5b5b585d1a5bdb881bd8d8dd5c9959607a1b604082015260600190565b60405180910390a1565b61ffff81811683821601908082111561018557634e487b7160e01b600052601160045260246000fd5b509291505056fea2646970667358221220827b3252e09ec9d249cf31223ace69de47319a92b3ff2d334149fd173dd9d99964736f6c63430008130033",
  "linkReferences": {},
  "deployedLinkReferences": {}
}